{
  "abi": [
    {
      "inputs": [
        {
          "internalType": "address",
          "name": "priceFeed",
          "type": "address"
        }
      ],
      "stateMutability": "nonpayable",
      "type": "constructor"
    },
    {
      "inputs": [],
      "name": "FundMe__NotOwner",
      "type": "error"
    },
    {
      "inputs": [
        {
          "internalType": "string",
          "name": "available",
          "type": "string"
        },
        {
          "internalType": "string",
          "name": "need",
          "type": "string"
        }
      ],
      "name": "InsufficientSupport",
      "type": "error"
    },
    {
      "anonymous": false,
      "inputs": [
        {
          "indexed": true,
          "internalType": "bytes32",
          "name": "message",
          "type": "bytes32"
        }
      ],
      "name": "Thanks",
      "type": "event"
    },
    {
      "inputs": [],
      "name": "MINIMUM_USD",
      "outputs": [
        {
          "internalType": "uint256",
          "name": "",
          "type": "uint256"
        }
      ],
      "stateMutability": "view",
      "type": "function"
    },
    {
      "inputs": [],
      "name": "cheaperWithdraw",
      "outputs": [],
      "stateMutability": "nonpayable",
      "type": "function"
    },
    {
      "inputs": [],
      "name": "emergencyFund",
      "outputs": [],
      "stateMutability": "payable",
      "type": "function"
    },
    {
      "inputs": [],
      "name": "emergencyFunds",
      "outputs": [
        {
          "internalType": "string",
          "name": "goal",
          "type": "string"
        },
        {
          "internalType": "uint256",
          "name": "amount",
          "type": "uint256"
        },
        {
          "internalType": "uint256",
          "name": "apex",
          "type": "uint256"
        },
        {
          "internalType": "bool",
          "name": "status",
          "type": "bool"
        }
      ],
      "stateMutability": "view",
      "type": "function"
    },
    {
      "inputs": [],
      "name": "fund",
      "outputs": [],
      "stateMutability": "payable",
      "type": "function"
    },
    {
      "inputs": [],
      "name": "fundClassification",
      "outputs": [
        {
          "internalType": "uint256",
          "name": "education",
          "type": "uint256"
        },
        {
          "internalType": "uint256",
          "name": "podcasts",
          "type": "uint256"
        },
        {
          "internalType": "uint256",
          "name": "others",
          "type": "uint256"
        }
      ],
      "stateMutability": "view",
      "type": "function"
    },
    {
      "inputs": [
        {
          "internalType": "string",
          "name": "purpose",
          "type": "string"
        }
      ],
      "name": "fundWithPurpose",
      "outputs": [],
      "stateMutability": "payable",
      "type": "function"
    },
    {
      "inputs": [
        {
          "internalType": "address",
          "name": "fundingAddress",
          "type": "address"
        }
      ],
      "name": "getAddressToAmountFunded",
      "outputs": [
        {
          "internalType": "uint256",
          "name": "",
          "type": "uint256"
        }
      ],
      "stateMutability": "view",
      "type": "function"
    },
    {
      "inputs": [],
      "name": "getEmergencyFund",
      "outputs": [
        {
          "internalType": "uint256",
          "name": "",
          "type": "uint256"
        }
      ],
      "stateMutability": "view",
      "type": "function"
    },
    {
      "inputs": [
        {
          "internalType": "uint256",
          "name": "index",
          "type": "uint256"
        }
      ],
      "name": "getFunder",
      "outputs": [
        {
          "internalType": "address",
          "name": "",
          "type": "address"
        }
      ],
      "stateMutability": "view",
      "type": "function"
    },
    {
      "inputs": [
        {
          "internalType": "address",
          "name": "funderAddress",
          "type": "address"
        }
      ],
      "name": "getFunderRank",
      "outputs": [
        {
          "internalType": "uint256",
          "name": "",
          "type": "uint256"
        }
      ],
      "stateMutability": "view",
      "type": "function"
    },
    {
      "inputs": [],
      "name": "getFundersCount",
      "outputs": [
        {
          "internalType": "uint256",
          "name": "",
          "type": "uint256"
        }
      ],
      "stateMutability": "view",
      "type": "function"
    },
    {
      "inputs": [],
      "name": "getOwner",
      "outputs": [
        {
          "internalType": "address",
          "name": "",
          "type": "address"
        }
      ],
      "stateMutability": "view",
      "type": "function"
    },
    {
      "inputs": [],
      "name": "getPriceFeed",
      "outputs": [
        {
          "internalType": "contract AggregatorV3Interface",
          "name": "",
          "type": "address"
        }
      ],
      "stateMutability": "view",
      "type": "function"
    },
    {
      "inputs": [],
      "name": "getStatusEmergencyFund",
      "outputs": [
        {
          "internalType": "uint256",
          "name": "amount",
          "type": "uint256"
        },
        {
          "internalType": "uint256",
          "name": "apex",
          "type": "uint256"
        }
      ],
      "stateMutability": "view",
      "type": "function"
    },
    {
      "inputs": [],
      "name": "getStatusFund",
      "outputs": [
        {
          "internalType": "uint256",
          "name": "education",
          "type": "uint256"
        },
        {
          "internalType": "uint256",
          "name": "podcasts",
          "type": "uint256"
        },
        {
          "internalType": "uint256",
          "name": "others",
          "type": "uint256"
        }
      ],
      "stateMutability": "view",
      "type": "function"
    },
    {
      "inputs": [],
      "name": "getVersion",
      "outputs": [
        {
          "internalType": "uint256",
          "name": "",
          "type": "uint256"
        }
      ],
      "stateMutability": "view",
      "type": "function"
    },
    {
      "inputs": [
        {
          "internalType": "string",
          "name": "_goal",
          "type": "string"
        },
        {
          "internalType": "uint256",
          "name": "money",
          "type": "uint256"
        }
      ],
      "name": "startEmergencyFund",
      "outputs": [],
      "stateMutability": "nonpayable",
      "type": "function"
    },
    {
      "inputs": [],
      "name": "withdraw",
      "outputs": [],
      "stateMutability": "nonpayable",
      "type": "function"
    }
  ],
  "bytecode": "60a060405234801561001057600080fd5b506040516114d13803806114d183398101604081905261002f9161005b565b600280546001600160a01b0319166001600160a01b03929092169190911790553360601b60805261008b565b60006020828403121561006d57600080fd5b81516001600160a01b038116811461008457600080fd5b9392505050565b60805160601c6113fe6100d360003960008181610214015281816103f9015281816104c2015281816107c7015281816108eb01528181610a940152610b3d01526113fe6000f3fe6080604052600436106101145760003560e01c8063920b3a7e116100a0578063c01a0bb311610064578063c01a0bb3146102e1578063cc859378146102fc578063d5192f8d14610304578063d7b4750c1461032c578063fb64238a1461034c57600080fd5b8063920b3a7e1461026c5780639e87a5cd14610281578063b60d42881461029f578063b8ecd10d146102a7578063be2693f0146102cc57600080fd5b80634ac95844116100e75780634ac95844146101a157806364128f04146101db5780636b69a592146101f0578063893d20e814610205578063912cbe101461024c57600080fd5b80630343fb25146101195780630d8e6e2c146101625780633ccfd60b14610177578063404c4cd01461018e575b600080fd5b34801561012557600080fd5b5061014f610134366004610fdb565b6001600160a01b031660009081526001602052604090205490565b6040519081526020015b60405180910390f35b34801561016e57600080fd5b5061014f61036c565b34801561018357600080fd5b5061018c6103ee565b005b61018c61019c3660046110ae565b61053b565b3480156101ad57600080fd5b506003546004546005546101c092919083565b60408051938452602084019290925290820152606001610159565b3480156101e757600080fd5b5060075461014f565b3480156101fc57600080fd5b5061014f603281565b34801561021157600080fd5b507f00000000000000000000000000000000000000000000000000000000000000005b6040516001600160a01b039091168152602001610159565b34801561025857600080fd5b5061014f610267366004610fdb565b6105e3565b34801561027857600080fd5b5060005461014f565b34801561028d57600080fd5b506002546001600160a01b0316610234565b61018c610681565b3480156102b357600080fd5b506102bc610713565b6040516101599493929190611130565b3480156102d857600080fd5b5061018c6107bc565b3480156102ed57600080fd5b506003546004546005546101c0565b61018c610965565b34801561031057600080fd5b5060075460085460408051928352602083019190915201610159565b34801561033857600080fd5b50610234610347366004611161565b610b03565b34801561035857600080fd5b5061018c61036736600461117a565b610b32565b6002546040805163054fd4d560e41b815290516000926001600160a01b0316916354fd4d50916004808301926020929190829003018186803b1580156103b157600080fd5b505afa1580156103c5573d6000803e3d6000fd5b505050506040513d601f19601f820116820180604052508101906103e991906111bf565b905090565b336001600160a01b037f000000000000000000000000000000000000000000000000000000000000000016146104375760405163579610db60e01b815260040160405180910390fd5b60005b60005481101561048d576000808281548110610458576104586111d8565b60009182526020808320909101546001600160a01b03168252600190526040812055508061048581611204565b91505061043a565b50604080516000808252602082019283905290516104ab9290610eed565b5060006003819055600481905560058190556040517f00000000000000000000000000000000000000000000000000000000000000006001600160a01b03169047908381818185875af1925050503d8060008114610525576040519150601f19603f3d011682016040523d82523d6000602084013e61052a565b606091505b505090508061053857600080fd5b50565b603261054634610be9565b101561058b5761055d61055834610be9565b610c1d565b6105676032610c1d565b60405163199ad9cb60e01b815260040161058292919061121f565b60405180910390fd5b6105958134610d34565b6040517f5468616e6b20796f7520666f7220796f757220737570706f7274696e67000000907f3f0e7b0b212b0f8b836aca087de333da4e3ecff5724cb12f346fdf00dcc0c25290600090a250565b6000805480825b828110156106795760016000866001600160a01b03166001600160a01b03168152602001908152602001600020546001600080848154811061062e5761062e6111d8565b60009182526020808320909101546001600160a01b03168352820192909252604001902054101561066757816106638161124d565b9250505b8061067181611204565b9150506105ea565b509392505050565b603261068c34610be9565b101561069e5761055d61055834610be9565b6106c6604051806040016040528060068152602001656f746865727360d01b81525034610d34565b6040517f5468616e6b20796f7520666f7220796f757220737570706f7274696e67000000907f3f0e7b0b212b0f8b836aca087de333da4e3ecff5724cb12f346fdf00dcc0c25290600090a2565b60068054819061072290611264565b80601f016020809104026020016040519081016040528092919081815260200182805461074e90611264565b801561079b5780601f106107705761010080835404028352916020019161079b565b820191906000526020600020905b81548152906001019060200180831161077e57829003601f168201915b50505050600183015460028401546003909401549293909290915060ff1684565b336001600160a01b037f000000000000000000000000000000000000000000000000000000000000000016146108055760405163579610db60e01b815260040160405180910390fd5b600080546040805160208084028201810190925282815291839183018282801561085857602002820191906000526020600020905b81546001600160a01b0316815260019091019060200180831161083a575b5050505050905060005b81518110156108b657600082828151811061087f5761087f6111d8565b6020908102919091018101516001600160a01b031660009081526001909152604081205550806108ae81611204565b915050610862565b50604080516000808252602082019283905290516108d49290610eed565b5060006003819055600481905560058190556040517f00000000000000000000000000000000000000000000000000000000000000006001600160a01b03169047908381818185875af1925050503d806000811461094e576040519150601f19603f3d011682016040523d82523d6000602084013e610953565b606091505b505090508061096157600080fd5b5050565b60095460ff166109b75760405162461bcd60e51b815260206004820152601c60248201527f456d657267656e63792066756e64206973206e6f7420616374697665000000006044820152606401610582565b34600660010160008282546109cc919061129f565b909155505033600090815260016020526040812080543492906109f090849061129f565b9091555050600080546001810182558180527f290decd9548b62a8d60345a988386fc84ba6bc95484008f6362f93160ef3e5630180546001600160a01b031916331790556040517f5468616e6b20796f7520666f7220796f757220737570706f7274696e67000000917f3f0e7b0b212b0f8b836aca087de333da4e3ecff5724cb12f346fdf00dcc0c25291a2600754600854811061053857600060078190556040517f00000000000000000000000000000000000000000000000000000000000000006001600160a01b03169083908381818185875af1925050503d8060008114610af7576040519150601f19603f3d011682016040523d82523d6000602084013e610afc565b606091505b5050505050565b6000808281548110610b1757610b176111d8565b6000918252602090912001546001600160a01b031692915050565b336001600160a01b037f00000000000000000000000000000000000000000000000000000000000000001614610b7b5760405163579610db60e01b815260040160405180910390fd5b6040805160808101825283815260006020808301919091529181018390526001606082015283519091600691610bb691839190870190610f52565b5060208201516001820155604082015160028201556060909101516003909101805460ff19169115159190911790555050565b600080610bf4610e43565b90506000670de0b6b3a7640000610c0b85846112b7565b610c1591906112ec565b949350505050565b606081610c415750506040805180820190915260018152600360fc1b602082015290565b8160005b8115610c6b5780610c5581611204565b9150610c649050600a836112ec565b9150610c45565b60008167ffffffffffffffff811115610c8657610c8661100b565b6040519080825280601f01601f191660200182016040528015610cb0576020820181803683370190505b5090506000610cc0600184611300565b90508593505b8315610d2b57610cd7600a85611317565b610ce290603061129f565b60f81b8282610cf08161124d565b935081518110610d0257610d026111d8565b60200101906001600160f81b031916908160001a905350610d24600a856112ec565b9350610cc6565b50949350505050565b3360009081526001602052604081208054839290610d5390849061129f565b9091555050600080546001810182559080527f290decd9548b62a8d60345a988386fc84ba6bc95484008f6362f93160ef3e5630180546001600160a01b03191633179055815160208301207f033d214a7c63ad0ebd322697d0ae9662f548cb21a426f70f837bd9e1b007ef08811415610de6578160036000016000828254610ddb919061129f565b90915550610e3e9050565b7fe7d1e02d6aa8a96d329b08255622a2dd713900a10a053b4cea27aa8f098c2792811415610e23578160036001016000828254610ddb919061129f565b8160036002016000828254610e38919061129f565b90915550505b505050565b60008073694aa1769357215de4fac081bf1f309adc32530690506000816001600160a01b031663feaf968c6040518163ffffffff1660e01b815260040160a06040518083038186803b158015610e9857600080fd5b505afa158015610eac573d6000803e3d6000fd5b505050506040513d601f19601f82011682018060405250810190610ed0919061134a565b5050509150506305f5e10081610ee6919061139a565b9250505090565b828054828255906000526020600020908101928215610f42579160200282015b82811115610f4257825182546001600160a01b0319166001600160a01b03909116178255602090920191600190910190610f0d565b50610f4e929150610fc6565b5090565b828054610f5e90611264565b90600052602060002090601f016020900481019282610f805760008555610f42565b82601f10610f9957805160ff1916838001178555610f42565b82800160010185558215610f42579182015b82811115610f42578251825591602001919060010190610fab565b5b80821115610f4e5760008155600101610fc7565b600060208284031215610fed57600080fd5b81356001600160a01b038116811461100457600080fd5b9392505050565b634e487b7160e01b600052604160045260246000fd5b600082601f83011261103257600080fd5b813567ffffffffffffffff8082111561104d5761104d61100b565b604051601f8301601f19908116603f011681019082821181831017156110755761107561100b565b8160405283815286602085880101111561108e57600080fd5b836020870160208301376000602085830101528094505050505092915050565b6000602082840312156110c057600080fd5b813567ffffffffffffffff8111156110d757600080fd5b610c1584828501611021565b6000815180845260005b81811015611109576020818501810151868301820152016110ed565b8181111561111b576000602083870101525b50601f01601f19169290920160200192915050565b60808152600061114360808301876110e3565b60208301959095525060408101929092521515606090910152919050565b60006020828403121561117357600080fd5b5035919050565b6000806040838503121561118d57600080fd5b823567ffffffffffffffff8111156111a457600080fd5b6111b085828601611021565b95602094909401359450505050565b6000602082840312156111d157600080fd5b5051919050565b634e487b7160e01b600052603260045260246000fd5b634e487b7160e01b600052601160045260246000fd5b6000600019821415611218576112186111ee565b5060010190565b60408152600061123260408301856110e3565b828103602084015261124481856110e3565b95945050505050565b60008161125c5761125c6111ee565b506000190190565b600181811c9082168061127857607f821691505b6020821081141561129957634e487b7160e01b600052602260045260246000fd5b50919050565b600082198211156112b2576112b26111ee565b500190565b60008160001904831182151516156112d1576112d16111ee565b500290565b634e487b7160e01b600052601260045260246000fd5b6000826112fb576112fb6112d6565b500490565b600082821015611312576113126111ee565b500390565b600082611326576113266112d6565b500690565b805169ffffffffffffffffffff8116811461134557600080fd5b919050565b600080600080600060a0868803121561136257600080fd5b61136b8661132b565b945060208601519350604086015192506060860151915061138e6080870161132b565b90509295509295909350565b6000826113a9576113a96112d6565b600160ff1b8214600019841416156113c3576113c36111ee565b50059056fea2646970667358221220af1e236f87dff72d3d5169922838dcf0cea2b06363caf906f2048ebae5a3387e64736f6c63430008080033",
  "bytecodeSha1": "ebd305b3ffb6a3cce2e0e0d75364511d713fc883",
  "compiler": {
    "evm_version": "istanbul",
    "optimizer": {
      "enabled": true,
      "runs": 200
    },
    "version": "0.8.8+commit.dddeac2f"
  },
  "contractName": "FundMe",
  "language": "Solidity",
  "natspec": {
    "author": "Patrick Collins",
    "details": "This implements price feeds as our library",
    "errors": {
      "InsufficientSupport(string,string)": [
        {
          "notice": "this was addded by me ///"
        }
      ]
    },
    "kind": "dev",
    "methods": {
      "fundWithPurpose(string)": {
        "notice": "Funds our contract based on the ETH/USD price"
      },
      "getAddressToAmountFunded(address)": {
        "notice": "Gets the amount that an address has funded",
        "params": {
          "fundingAddress": "the address of the funder"
        },
        "returns": {
          "_0": "the amount funded"
        }
      },
      "getFundersCount()": {
        "notice": "this was added by me ///"
      }
    },
    "notice": "This contract is for creating a sample funding contract",
    "title": "A sample Funding Contract",
    "version": 1
  },
  "opcodes": "PUSH1 0x80 PUSH1 0x40 MSTORE PUSH1 0x4 CALLDATASIZE LT PUSH2 0x114 JUMPI PUSH1 0x0 CALLDATALOAD PUSH1 0xE0 SHR DUP1 PUSH4 0x920B3A7E GT PUSH2 0xA0 JUMPI DUP1 PUSH4 0xC01A0BB3 GT PUSH2 0x64 JUMPI DUP1 PUSH4 0xC01A0BB3 EQ PUSH2 0x2E1 JUMPI DUP1 PUSH4 0xCC859378 EQ PUSH2 0x2FC JUMPI DUP1 PUSH4 0xD5192F8D EQ PUSH2 0x304 JUMPI DUP1 PUSH4 0xD7B4750C EQ PUSH2 0x32C JUMPI DUP1 PUSH4 0xFB64238A EQ PUSH2 0x34C JUMPI PUSH1 0x0 DUP1 REVERT JUMPDEST DUP1 PUSH4 0x920B3A7E EQ PUSH2 0x26C JUMPI DUP1 PUSH4 0x9E87A5CD EQ PUSH2 0x281 JUMPI DUP1 PUSH4 0xB60D4288 EQ PUSH2 0x29F JUMPI DUP1 PUSH4 0xB8ECD10D EQ PUSH2 0x2A7 JUMPI DUP1 PUSH4 0xBE2693F0 EQ PUSH2 0x2CC JUMPI PUSH1 0x0 DUP1 REVERT JUMPDEST DUP1 PUSH4 0x4AC95844 GT PUSH2 0xE7 JUMPI DUP1 PUSH4 0x4AC95844 EQ PUSH2 0x1A1 JUMPI DUP1 PUSH4 0x64128F04 EQ PUSH2 0x1DB JUMPI DUP1 PUSH4 0x6B69A592 EQ PUSH2 0x1F0 JUMPI DUP1 PUSH4 0x893D20E8 EQ PUSH2 0x205 JUMPI DUP1 PUSH4 0x912CBE10 EQ PUSH2 0x24C JUMPI PUSH1 0x0 DUP1 REVERT JUMPDEST DUP1 PUSH4 0x343FB25 EQ PUSH2 0x119 JUMPI DUP1 PUSH4 0xD8E6E2C EQ PUSH2 0x162 JUMPI DUP1 PUSH4 0x3CCFD60B EQ PUSH2 0x177 JUMPI DUP1 PUSH4 0x404C4CD0 EQ PUSH2 0x18E JUMPI JUMPDEST PUSH1 0x0 DUP1 REVERT JUMPDEST CALLVALUE DUP1 ISZERO PUSH2 0x125 JUMPI PUSH1 0x0 DUP1 REVERT JUMPDEST POP PUSH2 0x14F PUSH2 0x134 CALLDATASIZE PUSH1 0x4 PUSH2 0xFDB JUMP JUMPDEST PUSH1 0x1 PUSH1 0x1 PUSH1 0xA0 SHL SUB AND PUSH1 0x0 SWAP1 DUP2 MSTORE PUSH1 0x1 PUSH1 0x20 MSTORE PUSH1 0x40 SWAP1 KECCAK256 SLOAD SWAP1 JUMP JUMPDEST PUSH1 0x40 MLOAD SWAP1 DUP2 MSTORE PUSH1 0x20 ADD JUMPDEST PUSH1 0x40 MLOAD DUP1 SWAP2 SUB SWAP1 RETURN JUMPDEST CALLVALUE DUP1 ISZERO PUSH2 0x16E JUMPI PUSH1 0x0 DUP1 REVERT JUMPDEST POP PUSH2 0x14F PUSH2 0x36C JUMP JUMPDEST CALLVALUE DUP1 ISZERO PUSH2 0x183 JUMPI PUSH1 0x0 DUP1 REVERT JUMPDEST POP PUSH2 0x18C PUSH2 0x3EE JUMP JUMPDEST STOP JUMPDEST PUSH2 0x18C PUSH2 0x19C CALLDATASIZE PUSH1 0x4 PUSH2 0x10AE JUMP JUMPDEST PUSH2 0x53B JUMP JUMPDEST CALLVALUE DUP1 ISZERO PUSH2 0x1AD JUMPI PUSH1 0x0 DUP1 REVERT JUMPDEST POP PUSH1 0x3 SLOAD PUSH1 0x4 SLOAD PUSH1 0x5 SLOAD PUSH2 0x1C0 SWAP3 SWAP2 SWAP1 DUP4 JUMP JUMPDEST PUSH1 0x40 DUP1 MLOAD SWAP4 DUP5 MSTORE PUSH1 0x20 DUP5 ADD SWAP3 SWAP1 SWAP3 MSTORE SWAP1 DUP3 ADD MSTORE PUSH1 0x60 ADD PUSH2 0x159 JUMP JUMPDEST CALLVALUE DUP1 ISZERO PUSH2 0x1E7 JUMPI PUSH1 0x0 DUP1 REVERT JUMPDEST POP PUSH1 0x7 SLOAD PUSH2 0x14F JUMP JUMPDEST CALLVALUE DUP1 ISZERO PUSH2 0x1FC JUMPI PUSH1 0x0 DUP1 REVERT JUMPDEST POP PUSH2 0x14F PUSH1 0x32 DUP2 JUMP JUMPDEST CALLVALUE DUP1 ISZERO PUSH2 0x211 JUMPI PUSH1 0x0 DUP1 REVERT JUMPDEST POP PUSH32 0x0 JUMPDEST PUSH1 0x40 MLOAD PUSH1 0x1 PUSH1 0x1 PUSH1 0xA0 SHL SUB SWAP1 SWAP2 AND DUP2 MSTORE PUSH1 0x20 ADD PUSH2 0x159 JUMP JUMPDEST CALLVALUE DUP1 ISZERO PUSH2 0x258 JUMPI PUSH1 0x0 DUP1 REVERT JUMPDEST POP PUSH2 0x14F PUSH2 0x267 CALLDATASIZE PUSH1 0x4 PUSH2 0xFDB JUMP JUMPDEST PUSH2 0x5E3 JUMP JUMPDEST CALLVALUE DUP1 ISZERO PUSH2 0x278 JUMPI PUSH1 0x0 DUP1 REVERT JUMPDEST POP PUSH1 0x0 SLOAD PUSH2 0x14F JUMP JUMPDEST CALLVALUE DUP1 ISZERO PUSH2 0x28D JUMPI PUSH1 0x0 DUP1 REVERT JUMPDEST POP PUSH1 0x2 SLOAD PUSH1 0x1 PUSH1 0x1 PUSH1 0xA0 SHL SUB AND PUSH2 0x234 JUMP JUMPDEST PUSH2 0x18C PUSH2 0x681 JUMP JUMPDEST CALLVALUE DUP1 ISZERO PUSH2 0x2B3 JUMPI PUSH1 0x0 DUP1 REVERT JUMPDEST POP PUSH2 0x2BC PUSH2 0x713 JUMP JUMPDEST PUSH1 0x40 MLOAD PUSH2 0x159 SWAP5 SWAP4 SWAP3 SWAP2 SWAP1 PUSH2 0x1130 JUMP JUMPDEST CALLVALUE DUP1 ISZERO PUSH2 0x2D8 JUMPI PUSH1 0x0 DUP1 REVERT JUMPDEST POP PUSH2 0x18C PUSH2 0x7BC JUMP JUMPDEST CALLVALUE DUP1 ISZERO PUSH2 0x2ED JUMPI PUSH1 0x0 DUP1 REVERT JUMPDEST POP PUSH1 0x3 SLOAD PUSH1 0x4 SLOAD PUSH1 0x5 SLOAD PUSH2 0x1C0 JUMP JUMPDEST PUSH2 0x18C PUSH2 0x965 JUMP JUMPDEST CALLVALUE DUP1 ISZERO PUSH2 0x310 JUMPI PUSH1 0x0 DUP1 REVERT JUMPDEST POP PUSH1 0x7 SLOAD PUSH1 0x8 SLOAD PUSH1 0x40 DUP1 MLOAD SWAP3 DUP4 MSTORE PUSH1 0x20 DUP4 ADD SWAP2 SWAP1 SWAP2 MSTORE ADD PUSH2 0x159 JUMP JUMPDEST CALLVALUE DUP1 ISZERO PUSH2 0x338 JUMPI PUSH1 0x0 DUP1 REVERT JUMPDEST POP PUSH2 0x234 PUSH2 0x347 CALLDATASIZE PUSH1 0x4 PUSH2 0x1161 JUMP JUMPDEST PUSH2 0xB03 JUMP JUMPDEST CALLVALUE DUP1 ISZERO PUSH2 0x358 JUMPI PUSH1 0x0 DUP1 REVERT JUMPDEST POP PUSH2 0x18C PUSH2 0x367 CALLDATASIZE PUSH1 0x4 PUSH2 0x117A JUMP JUMPDEST PUSH2 0xB32 JUMP JUMPDEST PUSH1 0x2 SLOAD PUSH1 0x40 DUP1 MLOAD PUSH4 0x54FD4D5 PUSH1 0xE4 SHL DUP2 MSTORE SWAP1 MLOAD PUSH1 0x0 SWAP3 PUSH1 0x1 PUSH1 0x1 PUSH1 0xA0 SHL SUB AND SWAP2 PUSH4 0x54FD4D50 SWAP2 PUSH1 0x4 DUP1 DUP4 ADD SWAP3 PUSH1 0x20 SWAP3 SWAP2 SWAP1 DUP3 SWAP1 SUB ADD DUP2 DUP7 DUP1 EXTCODESIZE ISZERO DUP1 ISZERO PUSH2 0x3B1 JUMPI PUSH1 0x0 DUP1 REVERT JUMPDEST POP GAS STATICCALL ISZERO DUP1 ISZERO PUSH2 0x3C5 JUMPI RETURNDATASIZE PUSH1 0x0 DUP1 RETURNDATACOPY RETURNDATASIZE PUSH1 0x0 REVERT JUMPDEST POP POP POP POP PUSH1 0x40 MLOAD RETURNDATASIZE PUSH1 0x1F NOT PUSH1 0x1F DUP3 ADD AND DUP3 ADD DUP1 PUSH1 0x40 MSTORE POP DUP2 ADD SWAP1 PUSH2 0x3E9 SWAP2 SWAP1 PUSH2 0x11BF JUMP JUMPDEST SWAP1 POP SWAP1 JUMP JUMPDEST CALLER PUSH1 0x1 PUSH1 0x1 PUSH1 0xA0 SHL SUB PUSH32 0x0 AND EQ PUSH2 0x437 JUMPI PUSH1 0x40 MLOAD PUSH4 0x579610DB PUSH1 0xE0 SHL DUP2 MSTORE PUSH1 0x4 ADD PUSH1 0x40 MLOAD DUP1 SWAP2 SUB SWAP1 REVERT JUMPDEST PUSH1 0x0 JUMPDEST PUSH1 0x0 SLOAD DUP2 LT ISZERO PUSH2 0x48D JUMPI PUSH1 0x0 DUP1 DUP3 DUP2 SLOAD DUP2 LT PUSH2 0x458 JUMPI PUSH2 0x458 PUSH2 0x11D8 JUMP JUMPDEST PUSH1 0x0 SWAP2 DUP3 MSTORE PUSH1 0x20 DUP1 DUP4 KECCAK256 SWAP1 SWAP2 ADD SLOAD PUSH1 0x1 PUSH1 0x1 PUSH1 0xA0 SHL SUB AND DUP3 MSTORE PUSH1 0x1 SWAP1 MSTORE PUSH1 0x40 DUP2 KECCAK256 SSTORE POP DUP1 PUSH2 0x485 DUP2 PUSH2 0x1204 JUMP JUMPDEST SWAP2 POP POP PUSH2 0x43A JUMP JUMPDEST POP PUSH1 0x40 DUP1 MLOAD PUSH1 0x0 DUP1 DUP3 MSTORE PUSH1 0x20 DUP3 ADD SWAP3 DUP4 SWAP1 MSTORE SWAP1 MLOAD PUSH2 0x4AB SWAP3 SWAP1 PUSH2 0xEED JUMP JUMPDEST POP PUSH1 0x0 PUSH1 0x3 DUP2 SWAP1 SSTORE PUSH1 0x4 DUP2 SWAP1 SSTORE PUSH1 0x5 DUP2 SWAP1 SSTORE PUSH1 0x40 MLOAD PUSH32 0x0 PUSH1 0x1 PUSH1 0x1 PUSH1 0xA0 SHL SUB AND SWAP1 SELFBALANCE SWAP1 DUP4 DUP2 DUP2 DUP2 DUP6 DUP8 GAS CALL SWAP3 POP POP POP RETURNDATASIZE DUP1 PUSH1 0x0 DUP2 EQ PUSH2 0x525 JUMPI PUSH1 0x40 MLOAD SWAP2 POP PUSH1 0x1F NOT PUSH1 0x3F RETURNDATASIZE ADD AND DUP3 ADD PUSH1 0x40 MSTORE RETURNDATASIZE DUP3 MSTORE RETURNDATASIZE PUSH1 0x0 PUSH1 0x20 DUP5 ADD RETURNDATACOPY PUSH2 0x52A JUMP JUMPDEST PUSH1 0x60 SWAP2 POP JUMPDEST POP POP SWAP1 POP DUP1 PUSH2 0x538 JUMPI PUSH1 0x0 DUP1 REVERT JUMPDEST POP JUMP JUMPDEST PUSH1 0x32 PUSH2 0x546 CALLVALUE PUSH2 0xBE9 JUMP JUMPDEST LT ISZERO PUSH2 0x58B JUMPI PUSH2 0x55D PUSH2 0x558 CALLVALUE PUSH2 0xBE9 JUMP JUMPDEST PUSH2 0xC1D JUMP JUMPDEST PUSH2 0x567 PUSH1 0x32 PUSH2 0xC1D JUMP JUMPDEST PUSH1 0x40 MLOAD PUSH4 0x199AD9CB PUSH1 0xE0 SHL DUP2 MSTORE PUSH1 0x4 ADD PUSH2 0x582 SWAP3 SWAP2 SWAP1 PUSH2 0x121F JUMP JUMPDEST PUSH1 0x40 MLOAD DUP1 SWAP2 SUB SWAP1 REVERT JUMPDEST PUSH2 0x595 DUP2 CALLVALUE PUSH2 0xD34 JUMP JUMPDEST PUSH1 0x40 MLOAD PUSH32 0x5468616E6B20796F7520666F7220796F757220737570706F7274696E67000000 SWAP1 PUSH32 0x3F0E7B0B212B0F8B836ACA087DE333DA4E3ECFF5724CB12F346FDF00DCC0C252 SWAP1 PUSH1 0x0 SWAP1 LOG2 POP JUMP JUMPDEST PUSH1 0x0 DUP1 SLOAD DUP1 DUP3 JUMPDEST DUP3 DUP2 LT ISZERO PUSH2 0x679 JUMPI PUSH1 0x1 PUSH1 0x0 DUP7 PUSH1 0x1 PUSH1 0x1 PUSH1 0xA0 SHL SUB AND PUSH1 0x1 PUSH1 0x1 PUSH1 0xA0 SHL SUB AND DUP2 MSTORE PUSH1 0x20 ADD SWAP1 DUP2 MSTORE PUSH1 0x20 ADD PUSH1 0x0 KECCAK256 SLOAD PUSH1 0x1 PUSH1 0x0 DUP1 DUP5 DUP2 SLOAD DUP2 LT PUSH2 0x62E JUMPI PUSH2 0x62E PUSH2 0x11D8 JUMP JUMPDEST PUSH1 0x0 SWAP2 DUP3 MSTORE PUSH1 0x20 DUP1 DUP4 KECCAK256 SWAP1 SWAP2 ADD SLOAD PUSH1 0x1 PUSH1 0x1 PUSH1 0xA0 SHL SUB AND DUP4 MSTORE DUP3 ADD SWAP3 SWAP1 SWAP3 MSTORE PUSH1 0x40 ADD SWAP1 KECCAK256 SLOAD LT ISZERO PUSH2 0x667 JUMPI DUP2 PUSH2 0x663 DUP2 PUSH2 0x124D JUMP JUMPDEST SWAP3 POP POP JUMPDEST DUP1 PUSH2 0x671 DUP2 PUSH2 0x1204 JUMP JUMPDEST SWAP2 POP POP PUSH2 0x5EA JUMP JUMPDEST POP SWAP4 SWAP3 POP POP POP JUMP JUMPDEST PUSH1 0x32 PUSH2 0x68C CALLVALUE PUSH2 0xBE9 JUMP JUMPDEST LT ISZERO PUSH2 0x69E JUMPI PUSH2 0x55D PUSH2 0x558 CALLVALUE PUSH2 0xBE9 JUMP JUMPDEST PUSH2 0x6C6 PUSH1 0x40 MLOAD DUP1 PUSH1 0x40 ADD PUSH1 0x40 MSTORE DUP1 PUSH1 0x6 DUP2 MSTORE PUSH1 0x20 ADD PUSH6 0x6F7468657273 PUSH1 0xD0 SHL DUP2 MSTORE POP CALLVALUE PUSH2 0xD34 JUMP JUMPDEST PUSH1 0x40 MLOAD PUSH32 0x5468616E6B20796F7520666F7220796F757220737570706F7274696E67000000 SWAP1 PUSH32 0x3F0E7B0B212B0F8B836ACA087DE333DA4E3ECFF5724CB12F346FDF00DCC0C252 SWAP1 PUSH1 0x0 SWAP1 LOG2 JUMP JUMPDEST PUSH1 0x6 DUP1 SLOAD DUP2 SWAP1 PUSH2 0x722 SWAP1 PUSH2 0x1264 JUMP JUMPDEST DUP1 PUSH1 0x1F ADD PUSH1 0x20 DUP1 SWAP2 DIV MUL PUSH1 0x20 ADD PUSH1 0x40 MLOAD SWAP1 DUP2 ADD PUSH1 0x40 MSTORE DUP1 SWAP3 SWAP2 SWAP1 DUP2 DUP2 MSTORE PUSH1 0x20 ADD DUP3 DUP1 SLOAD PUSH2 0x74E SWAP1 PUSH2 0x1264 JUMP JUMPDEST DUP1 ISZERO PUSH2 0x79B JUMPI DUP1 PUSH1 0x1F LT PUSH2 0x770 JUMPI PUSH2 0x100 DUP1 DUP4 SLOAD DIV MUL DUP4 MSTORE SWAP2 PUSH1 0x20 ADD SWAP2 PUSH2 0x79B JUMP JUMPDEST DUP3 ADD SWAP2 SWAP1 PUSH1 0x0 MSTORE PUSH1 0x20 PUSH1 0x0 KECCAK256 SWAP1 JUMPDEST DUP2 SLOAD DUP2 MSTORE SWAP1 PUSH1 0x1 ADD SWAP1 PUSH1 0x20 ADD DUP1 DUP4 GT PUSH2 0x77E JUMPI DUP3 SWAP1 SUB PUSH1 0x1F AND DUP3 ADD SWAP2 JUMPDEST POP POP POP POP PUSH1 0x1 DUP4 ADD SLOAD PUSH1 0x2 DUP5 ADD SLOAD PUSH1 0x3 SWAP1 SWAP5 ADD SLOAD SWAP3 SWAP4 SWAP1 SWAP3 SWAP1 SWAP2 POP PUSH1 0xFF AND DUP5 JUMP JUMPDEST CALLER PUSH1 0x1 PUSH1 0x1 PUSH1 0xA0 SHL SUB PUSH32 0x0 AND EQ PUSH2 0x805 JUMPI PUSH1 0x40 MLOAD PUSH4 0x579610DB PUSH1 0xE0 SHL DUP2 MSTORE PUSH1 0x4 ADD PUSH1 0x40 MLOAD DUP1 SWAP2 SUB SWAP1 REVERT JUMPDEST PUSH1 0x0 DUP1 SLOAD PUSH1 0x40 DUP1 MLOAD PUSH1 0x20 DUP1 DUP5 MUL DUP3 ADD DUP2 ADD SWAP1 SWAP3 MSTORE DUP3 DUP2 MSTORE SWAP2 DUP4 SWAP2 DUP4 ADD DUP3 DUP3 DUP1 ISZERO PUSH2 0x858 JUMPI PUSH1 0x20 MUL DUP3 ADD SWAP2 SWAP1 PUSH1 0x0 MSTORE PUSH1 0x20 PUSH1 0x0 KECCAK256 SWAP1 JUMPDEST DUP2 SLOAD PUSH1 0x1 PUSH1 0x1 PUSH1 0xA0 SHL SUB AND DUP2 MSTORE PUSH1 0x1 SWAP1 SWAP2 ADD SWAP1 PUSH1 0x20 ADD DUP1 DUP4 GT PUSH2 0x83A JUMPI JUMPDEST POP POP POP POP POP SWAP1 POP PUSH1 0x0 JUMPDEST DUP2 MLOAD DUP2 LT ISZERO PUSH2 0x8B6 JUMPI PUSH1 0x0 DUP3 DUP3 DUP2 MLOAD DUP2 LT PUSH2 0x87F JUMPI PUSH2 0x87F PUSH2 0x11D8 JUMP JUMPDEST PUSH1 0x20 SWAP1 DUP2 MUL SWAP2 SWAP1 SWAP2 ADD DUP2 ADD MLOAD PUSH1 0x1 PUSH1 0x1 PUSH1 0xA0 SHL SUB AND PUSH1 0x0 SWAP1 DUP2 MSTORE PUSH1 0x1 SWAP1 SWAP2 MSTORE PUSH1 0x40 DUP2 KECCAK256 SSTORE POP DUP1 PUSH2 0x8AE DUP2 PUSH2 0x1204 JUMP JUMPDEST SWAP2 POP POP PUSH2 0x862 JUMP JUMPDEST POP PUSH1 0x40 DUP1 MLOAD PUSH1 0x0 DUP1 DUP3 MSTORE PUSH1 0x20 DUP3 ADD SWAP3 DUP4 SWAP1 MSTORE SWAP1 MLOAD PUSH2 0x8D4 SWAP3 SWAP1 PUSH2 0xEED JUMP JUMPDEST POP PUSH1 0x0 PUSH1 0x3 DUP2 SWAP1 SSTORE PUSH1 0x4 DUP2 SWAP1 SSTORE PUSH1 0x5 DUP2 SWAP1 SSTORE PUSH1 0x40 MLOAD PUSH32 0x0 PUSH1 0x1 PUSH1 0x1 PUSH1 0xA0 SHL SUB AND SWAP1 SELFBALANCE SWAP1 DUP4 DUP2 DUP2 DUP2 DUP6 DUP8 GAS CALL SWAP3 POP POP POP RETURNDATASIZE DUP1 PUSH1 0x0 DUP2 EQ PUSH2 0x94E JUMPI PUSH1 0x40 MLOAD SWAP2 POP PUSH1 0x1F NOT PUSH1 0x3F RETURNDATASIZE ADD AND DUP3 ADD PUSH1 0x40 MSTORE RETURNDATASIZE DUP3 MSTORE RETURNDATASIZE PUSH1 0x0 PUSH1 0x20 DUP5 ADD RETURNDATACOPY PUSH2 0x953 JUMP JUMPDEST PUSH1 0x60 SWAP2 POP JUMPDEST POP POP SWAP1 POP DUP1 PUSH2 0x961 JUMPI PUSH1 0x0 DUP1 REVERT JUMPDEST POP POP JUMP JUMPDEST PUSH1 0x9 SLOAD PUSH1 0xFF AND PUSH2 0x9B7 JUMPI PUSH1 0x40 MLOAD PUSH3 0x461BCD PUSH1 0xE5 SHL DUP2 MSTORE PUSH1 0x20 PUSH1 0x4 DUP3 ADD MSTORE PUSH1 0x1C PUSH1 0x24 DUP3 ADD MSTORE PUSH32 0x456D657267656E63792066756E64206973206E6F742061637469766500000000 PUSH1 0x44 DUP3 ADD MSTORE PUSH1 0x64 ADD PUSH2 0x582 JUMP JUMPDEST CALLVALUE PUSH1 0x6 PUSH1 0x1 ADD PUSH1 0x0 DUP3 DUP3 SLOAD PUSH2 0x9CC SWAP2 SWAP1 PUSH2 0x129F JUMP JUMPDEST SWAP1 SWAP2 SSTORE POP POP CALLER PUSH1 0x0 SWAP1 DUP2 MSTORE PUSH1 0x1 PUSH1 0x20 MSTORE PUSH1 0x40 DUP2 KECCAK256 DUP1 SLOAD CALLVALUE SWAP3 SWAP1 PUSH2 0x9F0 SWAP1 DUP5 SWAP1 PUSH2 0x129F JUMP JUMPDEST SWAP1 SWAP2 SSTORE POP POP PUSH1 0x0 DUP1 SLOAD PUSH1 0x1 DUP2 ADD DUP3 SSTORE DUP2 DUP1 MSTORE PUSH32 0x290DECD9548B62A8D60345A988386FC84BA6BC95484008F6362F93160EF3E563 ADD DUP1 SLOAD PUSH1 0x1 PUSH1 0x1 PUSH1 0xA0 SHL SUB NOT AND CALLER OR SWAP1 SSTORE PUSH1 0x40 MLOAD PUSH32 0x5468616E6B20796F7520666F7220796F757220737570706F7274696E67000000 SWAP2 PUSH32 0x3F0E7B0B212B0F8B836ACA087DE333DA4E3ECFF5724CB12F346FDF00DCC0C252 SWAP2 LOG2 PUSH1 0x7 SLOAD PUSH1 0x8 SLOAD DUP2 LT PUSH2 0x538 JUMPI PUSH1 0x0 PUSH1 0x7 DUP2 SWAP1 SSTORE PUSH1 0x40 MLOAD PUSH32 0x0 PUSH1 0x1 PUSH1 0x1 PUSH1 0xA0 SHL SUB AND SWAP1 DUP4 SWAP1 DUP4 DUP2 DUP2 DUP2 DUP6 DUP8 GAS CALL SWAP3 POP POP POP RETURNDATASIZE DUP1 PUSH1 0x0 DUP2 EQ PUSH2 0xAF7 JUMPI PUSH1 0x40 MLOAD SWAP2 POP PUSH1 0x1F NOT PUSH1 0x3F RETURNDATASIZE ADD AND DUP3 ADD PUSH1 0x40 MSTORE RETURNDATASIZE DUP3 MSTORE RETURNDATASIZE PUSH1 0x0 PUSH1 0x20 DUP5 ADD RETURNDATACOPY PUSH2 0xAFC JUMP JUMPDEST PUSH1 0x60 SWAP2 POP JUMPDEST POP POP POP POP POP JUMP JUMPDEST PUSH1 0x0 DUP1 DUP3 DUP2 SLOAD DUP2 LT PUSH2 0xB17 JUMPI PUSH2 0xB17 PUSH2 0x11D8 JUMP JUMPDEST PUSH1 0x0 SWAP2 DUP3 MSTORE PUSH1 0x20 SWAP1 SWAP2 KECCAK256 ADD SLOAD PUSH1 0x1 PUSH1 0x1 PUSH1 0xA0 SHL SUB AND SWAP3 SWAP2 POP POP JUMP JUMPDEST CALLER PUSH1 0x1 PUSH1 0x1 PUSH1 0xA0 SHL SUB PUSH32 0x0 AND EQ PUSH2 0xB7B JUMPI PUSH1 0x40 MLOAD PUSH4 0x579610DB PUSH1 0xE0 SHL DUP2 MSTORE PUSH1 0x4 ADD PUSH1 0x40 MLOAD DUP1 SWAP2 SUB SWAP1 REVERT JUMPDEST PUSH1 0x40 DUP1 MLOAD PUSH1 0x80 DUP2 ADD DUP3 MSTORE DUP4 DUP2 MSTORE PUSH1 0x0 PUSH1 0x20 DUP1 DUP4 ADD SWAP2 SWAP1 SWAP2 MSTORE SWAP2 DUP2 ADD DUP4 SWAP1 MSTORE PUSH1 0x1 PUSH1 0x60 DUP3 ADD MSTORE DUP4 MLOAD SWAP1 SWAP2 PUSH1 0x6 SWAP2 PUSH2 0xBB6 SWAP2 DUP4 SWAP2 SWAP1 DUP8 ADD SWAP1 PUSH2 0xF52 JUMP JUMPDEST POP PUSH1 0x20 DUP3 ADD MLOAD PUSH1 0x1 DUP3 ADD SSTORE PUSH1 0x40 DUP3 ADD MLOAD PUSH1 0x2 DUP3 ADD SSTORE PUSH1 0x60 SWAP1 SWAP2 ADD MLOAD PUSH1 0x3 SWAP1 SWAP2 ADD DUP1 SLOAD PUSH1 0xFF NOT AND SWAP2 ISZERO ISZERO SWAP2 SWAP1 SWAP2 OR SWAP1 SSTORE POP POP JUMP JUMPDEST PUSH1 0x0 DUP1 PUSH2 0xBF4 PUSH2 0xE43 JUMP JUMPDEST SWAP1 POP PUSH1 0x0 PUSH8 0xDE0B6B3A7640000 PUSH2 0xC0B DUP6 DUP5 PUSH2 0x12B7 JUMP JUMPDEST PUSH2 0xC15 SWAP2 SWAP1 PUSH2 0x12EC JUMP JUMPDEST SWAP5 SWAP4 POP POP POP POP JUMP JUMPDEST PUSH1 0x60 DUP2 PUSH2 0xC41 JUMPI POP POP PUSH1 0x40 DUP1 MLOAD DUP1 DUP3 ADD SWAP1 SWAP2 MSTORE PUSH1 0x1 DUP2 MSTORE PUSH1 0x3 PUSH1 0xFC SHL PUSH1 0x20 DUP3 ADD MSTORE SWAP1 JUMP JUMPDEST DUP2 PUSH1 0x0 JUMPDEST DUP2 ISZERO PUSH2 0xC6B JUMPI DUP1 PUSH2 0xC55 DUP2 PUSH2 0x1204 JUMP JUMPDEST SWAP2 POP PUSH2 0xC64 SWAP1 POP PUSH1 0xA DUP4 PUSH2 0x12EC JUMP JUMPDEST SWAP2 POP PUSH2 0xC45 JUMP JUMPDEST PUSH1 0x0 DUP2 PUSH8 0xFFFFFFFFFFFFFFFF DUP2 GT ISZERO PUSH2 0xC86 JUMPI PUSH2 0xC86 PUSH2 0x100B JUMP JUMPDEST PUSH1 0x40 MLOAD SWAP1 DUP1 DUP3 MSTORE DUP1 PUSH1 0x1F ADD PUSH1 0x1F NOT AND PUSH1 0x20 ADD DUP3 ADD PUSH1 0x40 MSTORE DUP1 ISZERO PUSH2 0xCB0 JUMPI PUSH1 0x20 DUP3 ADD DUP2 DUP1 CALLDATASIZE DUP4 CALLDATACOPY ADD SWAP1 POP JUMPDEST POP SWAP1 POP PUSH1 0x0 PUSH2 0xCC0 PUSH1 0x1 DUP5 PUSH2 0x1300 JUMP JUMPDEST SWAP1 POP DUP6 SWAP4 POP JUMPDEST DUP4 ISZERO PUSH2 0xD2B JUMPI PUSH2 0xCD7 PUSH1 0xA DUP6 PUSH2 0x1317 JUMP JUMPDEST PUSH2 0xCE2 SWAP1 PUSH1 0x30 PUSH2 0x129F JUMP JUMPDEST PUSH1 0xF8 SHL DUP3 DUP3 PUSH2 0xCF0 DUP2 PUSH2 0x124D JUMP JUMPDEST SWAP4 POP DUP2 MLOAD DUP2 LT PUSH2 0xD02 JUMPI PUSH2 0xD02 PUSH2 0x11D8 JUMP JUMPDEST PUSH1 0x20 ADD ADD SWAP1 PUSH1 0x1 PUSH1 0x1 PUSH1 0xF8 SHL SUB NOT AND SWAP1 DUP2 PUSH1 0x0 BYTE SWAP1 MSTORE8 POP PUSH2 0xD24 PUSH1 0xA DUP6 PUSH2 0x12EC JUMP JUMPDEST SWAP4 POP PUSH2 0xCC6 JUMP JUMPDEST POP SWAP5 SWAP4 POP POP POP POP JUMP JUMPDEST CALLER PUSH1 0x0 SWAP1 DUP2 MSTORE PUSH1 0x1 PUSH1 0x20 MSTORE PUSH1 0x40 DUP2 KECCAK256 DUP1 SLOAD DUP4 SWAP3 SWAP1 PUSH2 0xD53 SWAP1 DUP5 SWAP1 PUSH2 0x129F JUMP JUMPDEST SWAP1 SWAP2 SSTORE POP POP PUSH1 0x0 DUP1 SLOAD PUSH1 0x1 DUP2 ADD DUP3 SSTORE SWAP1 DUP1 MSTORE PUSH32 0x290DECD9548B62A8D60345A988386FC84BA6BC95484008F6362F93160EF3E563 ADD DUP1 SLOAD PUSH1 0x1 PUSH1 0x1 PUSH1 0xA0 SHL SUB NOT AND CALLER OR SWAP1 SSTORE DUP2 MLOAD PUSH1 0x20 DUP4 ADD KECCAK256 PUSH32 0x33D214A7C63AD0EBD322697D0AE9662F548CB21A426F70F837BD9E1B007EF08 DUP2 EQ ISZERO PUSH2 0xDE6 JUMPI DUP2 PUSH1 0x3 PUSH1 0x0 ADD PUSH1 0x0 DUP3 DUP3 SLOAD PUSH2 0xDDB SWAP2 SWAP1 PUSH2 0x129F JUMP JUMPDEST SWAP1 SWAP2 SSTORE POP PUSH2 0xE3E SWAP1 POP JUMP JUMPDEST PUSH32 0xE7D1E02D6AA8A96D329B08255622A2DD713900A10A053B4CEA27AA8F098C2792 DUP2 EQ ISZERO PUSH2 0xE23 JUMPI DUP2 PUSH1 0x3 PUSH1 0x1 ADD PUSH1 0x0 DUP3 DUP3 SLOAD PUSH2 0xDDB SWAP2 SWAP1 PUSH2 0x129F JUMP JUMPDEST DUP2 PUSH1 0x3 PUSH1 0x2 ADD PUSH1 0x0 DUP3 DUP3 SLOAD PUSH2 0xE38 SWAP2 SWAP1 PUSH2 0x129F JUMP JUMPDEST SWAP1 SWAP2 SSTORE POP POP JUMPDEST POP POP POP JUMP JUMPDEST PUSH1 0x0 DUP1 PUSH20 0x694AA1769357215DE4FAC081BF1F309ADC325306 SWAP1 POP PUSH1 0x0 DUP2 PUSH1 0x1 PUSH1 0x1 PUSH1 0xA0 SHL SUB AND PUSH4 0xFEAF968C PUSH1 0x40 MLOAD DUP2 PUSH4 0xFFFFFFFF AND PUSH1 0xE0 SHL DUP2 MSTORE PUSH1 0x4 ADD PUSH1 0xA0 PUSH1 0x40 MLOAD DUP1 DUP4 SUB DUP2 DUP7 DUP1 EXTCODESIZE ISZERO DUP1 ISZERO PUSH2 0xE98 JUMPI PUSH1 0x0 DUP1 REVERT JUMPDEST POP GAS STATICCALL ISZERO DUP1 ISZERO PUSH2 0xEAC JUMPI RETURNDATASIZE PUSH1 0x0 DUP1 RETURNDATACOPY RETURNDATASIZE PUSH1 0x0 REVERT JUMPDEST POP POP POP POP PUSH1 0x40 MLOAD RETURNDATASIZE PUSH1 0x1F NOT PUSH1 0x1F DUP3 ADD AND DUP3 ADD DUP1 PUSH1 0x40 MSTORE POP DUP2 ADD SWAP1 PUSH2 0xED0 SWAP2 SWAP1 PUSH2 0x134A JUMP JUMPDEST POP POP POP SWAP2 POP POP PUSH4 0x5F5E100 DUP2 PUSH2 0xEE6 SWAP2 SWAP1 PUSH2 0x139A JUMP JUMPDEST SWAP3 POP POP POP SWAP1 JUMP JUMPDEST DUP3 DUP1 SLOAD DUP3 DUP3 SSTORE SWAP1 PUSH1 0x0 MSTORE PUSH1 0x20 PUSH1 0x0 KECCAK256 SWAP1 DUP2 ADD SWAP3 DUP3 ISZERO PUSH2 0xF42 JUMPI SWAP2 PUSH1 0x20 MUL DUP3 ADD JUMPDEST DUP3 DUP2 GT ISZERO PUSH2 0xF42 JUMPI DUP3 MLOAD DUP3 SLOAD PUSH1 0x1 PUSH1 0x1 PUSH1 0xA0 SHL SUB NOT AND PUSH1 0x1 PUSH1 0x1 PUSH1 0xA0 SHL SUB SWAP1 SWAP2 AND OR DUP3 SSTORE PUSH1 0x20 SWAP1 SWAP3 ADD SWAP2 PUSH1 0x1 SWAP1 SWAP2 ADD SWAP1 PUSH2 0xF0D JUMP JUMPDEST POP PUSH2 0xF4E SWAP3 SWAP2 POP PUSH2 0xFC6 JUMP JUMPDEST POP SWAP1 JUMP JUMPDEST DUP3 DUP1 SLOAD PUSH2 0xF5E SWAP1 PUSH2 0x1264 JUMP JUMPDEST SWAP1 PUSH1 0x0 MSTORE PUSH1 0x20 PUSH1 0x0 KECCAK256 SWAP1 PUSH1 0x1F ADD PUSH1 0x20 SWAP1 DIV DUP2 ADD SWAP3 DUP3 PUSH2 0xF80 JUMPI PUSH1 0x0 DUP6 SSTORE PUSH2 0xF42 JUMP JUMPDEST DUP3 PUSH1 0x1F LT PUSH2 0xF99 JUMPI DUP1 MLOAD PUSH1 0xFF NOT AND DUP4 DUP1 ADD OR DUP6 SSTORE PUSH2 0xF42 JUMP JUMPDEST DUP3 DUP1 ADD PUSH1 0x1 ADD DUP6 SSTORE DUP3 ISZERO PUSH2 0xF42 JUMPI SWAP2 DUP3 ADD JUMPDEST DUP3 DUP2 GT ISZERO PUSH2 0xF42 JUMPI DUP3 MLOAD DUP3 SSTORE SWAP2 PUSH1 0x20 ADD SWAP2 SWAP1 PUSH1 0x1 ADD SWAP1 PUSH2 0xFAB JUMP JUMPDEST JUMPDEST DUP1 DUP3 GT ISZERO PUSH2 0xF4E JUMPI PUSH1 0x0 DUP2 SSTORE PUSH1 0x1 ADD PUSH2 0xFC7 JUMP JUMPDEST PUSH1 0x0 PUSH1 0x20 DUP3 DUP5 SUB SLT ISZERO PUSH2 0xFED JUMPI PUSH1 0x0 DUP1 REVERT JUMPDEST DUP2 CALLDATALOAD PUSH1 0x1 PUSH1 0x1 PUSH1 0xA0 SHL SUB DUP2 AND DUP2 EQ PUSH2 0x1004 JUMPI PUSH1 0x0 DUP1 REVERT JUMPDEST SWAP4 SWAP3 POP POP POP JUMP JUMPDEST PUSH4 0x4E487B71 PUSH1 0xE0 SHL PUSH1 0x0 MSTORE PUSH1 0x41 PUSH1 0x4 MSTORE PUSH1 0x24 PUSH1 0x0 REVERT JUMPDEST PUSH1 0x0 DUP3 PUSH1 0x1F DUP4 ADD SLT PUSH2 0x1032 JUMPI PUSH1 0x0 DUP1 REVERT JUMPDEST DUP2 CALLDATALOAD PUSH8 0xFFFFFFFFFFFFFFFF DUP1 DUP3 GT ISZERO PUSH2 0x104D JUMPI PUSH2 0x104D PUSH2 0x100B JUMP JUMPDEST PUSH1 0x40 MLOAD PUSH1 0x1F DUP4 ADD PUSH1 0x1F NOT SWAP1 DUP2 AND PUSH1 0x3F ADD AND DUP2 ADD SWAP1 DUP3 DUP3 GT DUP2 DUP4 LT OR ISZERO PUSH2 0x1075 JUMPI PUSH2 0x1075 PUSH2 0x100B JUMP JUMPDEST DUP2 PUSH1 0x40 MSTORE DUP4 DUP2 MSTORE DUP7 PUSH1 0x20 DUP6 DUP9 ADD ADD GT ISZERO PUSH2 0x108E JUMPI PUSH1 0x0 DUP1 REVERT JUMPDEST DUP4 PUSH1 0x20 DUP8 ADD PUSH1 0x20 DUP4 ADD CALLDATACOPY PUSH1 0x0 PUSH1 0x20 DUP6 DUP4 ADD ADD MSTORE DUP1 SWAP5 POP POP POP POP POP SWAP3 SWAP2 POP POP JUMP JUMPDEST PUSH1 0x0 PUSH1 0x20 DUP3 DUP5 SUB SLT ISZERO PUSH2 0x10C0 JUMPI PUSH1 0x0 DUP1 REVERT JUMPDEST DUP2 CALLDATALOAD PUSH8 0xFFFFFFFFFFFFFFFF DUP2 GT ISZERO PUSH2 0x10D7 JUMPI PUSH1 0x0 DUP1 REVERT JUMPDEST PUSH2 0xC15 DUP5 DUP3 DUP6 ADD PUSH2 0x1021 JUMP JUMPDEST PUSH1 0x0 DUP2 MLOAD DUP1 DUP5 MSTORE PUSH1 0x0 JUMPDEST DUP2 DUP2 LT ISZERO PUSH2 0x1109 JUMPI PUSH1 0x20 DUP2 DUP6 ADD DUP2 ADD MLOAD DUP7 DUP4 ADD DUP3 ADD MSTORE ADD PUSH2 0x10ED JUMP JUMPDEST DUP2 DUP2 GT ISZERO PUSH2 0x111B JUMPI PUSH1 0x0 PUSH1 0x20 DUP4 DUP8 ADD ADD MSTORE JUMPDEST POP PUSH1 0x1F ADD PUSH1 0x1F NOT AND SWAP3 SWAP1 SWAP3 ADD PUSH1 0x20 ADD SWAP3 SWAP2 POP POP JUMP JUMPDEST PUSH1 0x80 DUP2 MSTORE PUSH1 0x0 PUSH2 0x1143 PUSH1 0x80 DUP4 ADD DUP8 PUSH2 0x10E3 JUMP JUMPDEST PUSH1 0x20 DUP4 ADD SWAP6 SWAP1 SWAP6 MSTORE POP PUSH1 0x40 DUP2 ADD SWAP3 SWAP1 SWAP3 MSTORE ISZERO ISZERO PUSH1 0x60 SWAP1 SWAP2 ADD MSTORE SWAP2 SWAP1 POP JUMP JUMPDEST PUSH1 0x0 PUSH1 0x20 DUP3 DUP5 SUB SLT ISZERO PUSH2 0x1173 JUMPI PUSH1 0x0 DUP1 REVERT JUMPDEST POP CALLDATALOAD SWAP2 SWAP1 POP JUMP JUMPDEST PUSH1 0x0 DUP1 PUSH1 0x40 DUP4 DUP6 SUB SLT ISZERO PUSH2 0x118D JUMPI PUSH1 0x0 DUP1 REVERT JUMPDEST DUP3 CALLDATALOAD PUSH8 0xFFFFFFFFFFFFFFFF DUP2 GT ISZERO PUSH2 0x11A4 JUMPI PUSH1 0x0 DUP1 REVERT JUMPDEST PUSH2 0x11B0 DUP6 DUP3 DUP7 ADD PUSH2 0x1021 JUMP JUMPDEST SWAP6 PUSH1 0x20 SWAP5 SWAP1 SWAP5 ADD CALLDATALOAD SWAP5 POP POP POP POP JUMP JUMPDEST PUSH1 0x0 PUSH1 0x20 DUP3 DUP5 SUB SLT ISZERO PUSH2 0x11D1 JUMPI PUSH1 0x0 DUP1 REVERT JUMPDEST POP MLOAD SWAP2 SWAP1 POP JUMP JUMPDEST PUSH4 0x4E487B71 PUSH1 0xE0 SHL PUSH1 0x0 MSTORE PUSH1 0x32 PUSH1 0x4 MSTORE PUSH1 0x24 PUSH1 0x0 REVERT JUMPDEST PUSH4 0x4E487B71 PUSH1 0xE0 SHL PUSH1 0x0 MSTORE PUSH1 0x11 PUSH1 0x4 MSTORE PUSH1 0x24 PUSH1 0x0 REVERT JUMPDEST PUSH1 0x0 PUSH1 0x0 NOT DUP3 EQ ISZERO PUSH2 0x1218 JUMPI PUSH2 0x1218 PUSH2 0x11EE JUMP JUMPDEST POP PUSH1 0x1 ADD SWAP1 JUMP JUMPDEST PUSH1 0x40 DUP2 MSTORE PUSH1 0x0 PUSH2 0x1232 PUSH1 0x40 DUP4 ADD DUP6 PUSH2 0x10E3 JUMP JUMPDEST DUP3 DUP2 SUB PUSH1 0x20 DUP5 ADD MSTORE PUSH2 0x1244 DUP2 DUP6 PUSH2 0x10E3 JUMP JUMPDEST SWAP6 SWAP5 POP POP POP POP POP JUMP JUMPDEST PUSH1 0x0 DUP2 PUSH2 0x125C JUMPI PUSH2 0x125C PUSH2 0x11EE JUMP JUMPDEST POP PUSH1 0x0 NOT ADD SWAP1 JUMP JUMPDEST PUSH1 0x1 DUP2 DUP2 SHR SWAP1 DUP3 AND DUP1 PUSH2 0x1278 JUMPI PUSH1 0x7F DUP3 AND SWAP2 POP JUMPDEST PUSH1 0x20 DUP3 LT DUP2 EQ ISZERO PUSH2 0x1299 JUMPI PUSH4 0x4E487B71 PUSH1 0xE0 SHL PUSH1 0x0 MSTORE PUSH1 0x22 PUSH1 0x4 MSTORE PUSH1 0x24 PUSH1 0x0 REVERT JUMPDEST POP SWAP2 SWAP1 POP JUMP JUMPDEST PUSH1 0x0 DUP3 NOT DUP3 GT ISZERO PUSH2 0x12B2 JUMPI PUSH2 0x12B2 PUSH2 0x11EE JUMP JUMPDEST POP ADD SWAP1 JUMP JUMPDEST PUSH1 0x0 DUP2 PUSH1 0x0 NOT DIV DUP4 GT DUP3 ISZERO ISZERO AND ISZERO PUSH2 0x12D1 JUMPI PUSH2 0x12D1 PUSH2 0x11EE JUMP JUMPDEST POP MUL SWAP1 JUMP JUMPDEST PUSH4 0x4E487B71 PUSH1 0xE0 SHL PUSH1 0x0 MSTORE PUSH1 0x12 PUSH1 0x4 MSTORE PUSH1 0x24 PUSH1 0x0 REVERT JUMPDEST PUSH1 0x0 DUP3 PUSH2 0x12FB JUMPI PUSH2 0x12FB PUSH2 0x12D6 JUMP JUMPDEST POP DIV SWAP1 JUMP JUMPDEST PUSH1 0x0 DUP3 DUP3 LT ISZERO PUSH2 0x1312 JUMPI PUSH2 0x1312 PUSH2 0x11EE JUMP JUMPDEST POP SUB SWAP1 JUMP JUMPDEST PUSH1 0x0 DUP3 PUSH2 0x1326 JUMPI PUSH2 0x1326 PUSH2 0x12D6 JUMP JUMPDEST POP MOD SWAP1 JUMP JUMPDEST DUP1 MLOAD PUSH10 0xFFFFFFFFFFFFFFFFFFFF DUP2 AND DUP2 EQ PUSH2 0x1345 JUMPI PUSH1 0x0 DUP1 REVERT JUMPDEST SWAP2 SWAP1 POP JUMP JUMPDEST PUSH1 0x0 DUP1 PUSH1 0x0 DUP1 PUSH1 0x0 PUSH1 0xA0 DUP7 DUP9 SUB SLT ISZERO PUSH2 0x1362 JUMPI PUSH1 0x0 DUP1 REVERT JUMPDEST PUSH2 0x136B DUP7 PUSH2 0x132B JUMP JUMPDEST SWAP5 POP PUSH1 0x20 DUP7 ADD MLOAD SWAP4 POP PUSH1 0x40 DUP7 ADD MLOAD SWAP3 POP PUSH1 0x60 DUP7 ADD MLOAD SWAP2 POP PUSH2 0x138E PUSH1 0x80 DUP8 ADD PUSH2 0x132B JUMP JUMPDEST SWAP1 POP SWAP3 SWAP6 POP SWAP3 SWAP6 SWAP1 SWAP4 POP JUMP JUMPDEST PUSH1 0x0 DUP3 PUSH2 0x13A9 JUMPI PUSH2 0x13A9 PUSH2 0x12D6 JUMP JUMPDEST PUSH1 0x1 PUSH1 0xFF SHL DUP3 EQ PUSH1 0x0 NOT DUP5 EQ AND ISZERO PUSH2 0x13C3 JUMPI PUSH2 0x13C3 PUSH2 0x11EE JUMP JUMPDEST POP SDIV SWAP1 JUMP INVALID LOG2 PUSH5 0x6970667358 0x22 SLT KECCAK256 0xAF 0x1E 0x23 PUSH16 0x87DFF72D3D5169922838DCF0CEA2B063 PUSH4 0xCAF906F2 DIV DUP15 0xBA 0xE5 LOG3 CODESIZE PUSH31 0x64736F6C634300080800330000000000000000000000000000000000000000 ",
  "sha1": "c46266a3587c1e183c70f9c1cf9e6cc7fe4cdcca",
  "source": "// SPDX-License-Identifier: MIT\n// 1. Pragma\npragma solidity ^0.8.8;\n// 2. Imports\nimport \"@chainlink/contracts/src/v0.8/interfaces/AggregatorV3Interface.sol\";\nimport \"./PriceConverter.sol\";\nimport './StringUtils.sol';\n\n\n/**@title A sample Funding Contract\n * @author Patrick Collins\n * @notice This contract is for creating a sample funding contract\n * @dev This implements price feeds as our library\n */\ncontract FundMe {\n    // 3. Interfaces, Libraries, Contracts\nerror FundMe__NotOwner();\n/// this was addded by me ///\nerror InsufficientSupport(string available, string need);\n\n    // Type Declarations\n    using PriceConverter for uint256;\n    using StringUtils for uint256;\n\n    // State variables\n    /// this was added by me ///\n    string private constant DEFAULT_PURPOSE = \"others\";\n\n    uint256 public constant MINIMUM_USD = 50  ;\n    address private immutable i_owner;\n    address[] private s_funders;\n    mapping(address => uint256) private s_addressToAmountFunded;\n    AggregatorV3Interface private s_priceFeed;\n    /// this was added by me ///\n    struct FundClassification {\n        uint256 education;\n        uint256 podcasts;\n        uint256 others;\n    }\n    FundClassification public fundClassification;\n    struct EmergencyFunds {\n        string goal;\n        uint256 amount;\n        uint256 apex;\n        bool status;\n    }\n    EmergencyFunds public emergencyFunds;\n \n\n    // Events \n    /// this was added by me ///\n    event Thanks(bytes32 indexed message);\n    // Modifiers\n    modifier onlyOwner() {\n        // require(msg.sender == i_owner);\n        if (msg.sender != i_owner) revert FundMe__NotOwner();\n        _;\n    }\n    modifier activeFund() {\n        \n        require (emergencyFunds.status,\"Emergency fund is not active\");\n        _;\n    }\n    modifier SufficientSupport(){\n        if (msg.value.getConversionRate() < MINIMUM_USD) revert InsufficientSupport({\n             available:StringUtils.toString(msg.value.getConversionRate()),\n             need:StringUtils.toString(MINIMUM_USD) \n    });\n        _;\n\n    }\n\n    // Functions Order:\n    //// constructor\n    //// receive\n    //// fallback\n    //// external\n    //// public\n    //// internal\n    //// private\n    //// view / pure\n\n    constructor(address priceFeed) {\n        s_priceFeed = AggregatorV3Interface(priceFeed);\n        i_owner = msg.sender;\n    }\n\n    /// @notice Funds our contract based on the ETH/USD price\n    function fundWithPurpose (string memory purpose) public payable SufficientSupport {\n        /// this part of the code was changed to use less gas\n        \n        \n        updateFunds(purpose, msg.value);\n        emit Thanks ('Thank you for your supporting');\n\n    }\n    function fund() public payable SufficientSupport{\n    \n        updateFunds(DEFAULT_PURPOSE, msg.value);\n        emit Thanks ('Thank you for your supporting');\n\n    }\n        \n    function updateFunds(string memory purpose, uint256 amount) private{\n        s_addressToAmountFunded[msg.sender] += amount;\n        s_funders.push(msg.sender);\n        /// It was changed by me \n        bytes32 purposeHash = keccak256(bytes(purpose));\n\n        if (purposeHash == keccak256(\"education\")) {\n            fundClassification.education += amount;\n        } else if (purposeHash == keccak256(\"podcasts\")) {\n            fundClassification.podcasts += amount;\n        } else {\n            fundClassification.others += amount;\n\n        }\n        \n\n    }\n\n    function withdraw() public onlyOwner  {\n        for (\n            uint256 funderIndex = 0;\n            funderIndex < s_funders.length;\n            funderIndex++\n        ) {\n            address funder = s_funders[funderIndex];\n            s_addressToAmountFunded[funder] = 0;\n            \n        }\n        s_funders = new address[](0);\n        fundClassification.education = 0;\n        fundClassification.podcasts = 0;\n        fundClassification.others = 0;\n        \n        // Transfer vs call vs Send\n        // payable(msg.sender).transfer(address(this).balance);\n        (bool success, ) = i_owner.call{value: address(this).balance}(\"\");\n        require(success);\n    }\n\n    function cheaperWithdraw() public onlyOwner {\n        address[] memory funders = s_funders;\n        // mappings can't be in memory, sorry!\n        for (\n            uint256 funderIndex = 0;\n            funderIndex < funders.length;\n            funderIndex++\n        ) {\n            address funder = funders[funderIndex];\n            s_addressToAmountFunded[funder] = 0;\n        }\n        s_funders = new address[](0);\n        fundClassification.education = 0;\n        fundClassification.podcasts = 0;\n        fundClassification.others = 0;\n        // payable(msg.sender).transfer(address(this).balance);\n        (bool success, ) = i_owner.call{value: address(this).balance}(\"\");\n        require(success);\n    }\n\n    /** @notice Gets the amount that an address has funded\n     *  @param fundingAddress the address of the funder\n     *  @return the amount funded\n     */\n    function getAddressToAmountFunded(address fundingAddress)\n        public\n        view\n        returns (uint256)\n    {\n        return s_addressToAmountFunded[fundingAddress];\n    }\n\n    function getVersion() public view returns (uint256) {\n        return s_priceFeed.version();\n    }\n\n    function getFunder(uint256 index) public view returns (address) {\n        return s_funders[index];\n    }\n\n    function getOwner() public view returns (address) {\n        return i_owner;\n    }\n\n    function getPriceFeed() public view returns (AggregatorV3Interface) {\n        return s_priceFeed;\n    }\n    /// this was added by me ///\n    function getFundersCount() public view returns (uint256) {\n        return s_funders.length;\n    }\n    //Get Funder Rank: Add a function that allows anyone to check their rank based on the amount they funded. The rank is determined by the position of their address in the sorted list of funders.\n    function getFunderRank(address funderAddress) public view returns (uint256) {\n        uint256 totalFunders = s_funders.length;\n        uint256 rank = totalFunders;\n\n        for (uint256 i = 0; i < totalFunders; i++) {\n            if (s_addressToAmountFunded[s_funders[i]] < s_addressToAmountFunded[funderAddress]) {\n                rank--;\n            }\n        }\n\n        return rank;\n    }\n    function startEmergencyFund (string memory _goal, uint256 money) public onlyOwner{\n        emergencyFunds = EmergencyFunds({\n            goal : _goal,\n            apex : money,\n            status : true,\n            amount : 0\n        });\n\n    }\n    function emergencyFund() public payable activeFund {\n        emergencyFunds.amount += msg.value;\n        s_addressToAmountFunded[msg.sender] += msg.value;\n        s_funders.push(msg.sender);\n        emit Thanks ('Thank you for your supporting');\n        uint256 budget = emergencyFunds.amount;\n        if (budget >= emergencyFunds.apex) {\n            emergencyFunds.amount = 0;\n            (bool success, ) = i_owner.call{value: budget}(\"\");\n        }\n\n    }\n    function getEmergencyFund() public view returns (uint256) {\n        return emergencyFunds.amount;\n    }\n    function getStatusFund() public view returns (uint256 education, \n    uint256 podcasts, uint256 others) {\n        education = fundClassification.education;\n        podcasts = fundClassification.podcasts;\n        others = fundClassification.others;\n    } \n    function getStatusEmergencyFund() public view returns (uint256 amount, uint256 apex) {\n         amount = emergencyFunds.amount;\n         apex = emergencyFunds.apex;\n\n    }\n        \n\n\n}\n\n//0x694AA1769357215DE4FAC081bf1f309aDC325306",
  "sourcePath": "contracts/FundMe.sol",
  "type": "contract"
}